:02000000B92A1B
:10000600243083120313FC00B530FD00FD0B0928D4
:0A001600FC0B0928000000000800A0
:0E002000533083120313FD00FD0B142808005B
:0C002E00000000000000000000000800BE
:10003A0083120313F8010830FC00700DF80D7408E0
:10004A00F80203182A28F8070310F00DFC0B2228DF
:02005A0008009C
:10005C0083160313A31B35288312871337288312A7
:10006C0087178316231B3D28831207133F288312FF
:10007C0007178316A31A4528831287124728831261
:10008C0087168316231A4D28831207124F288312C2
:10009C0007166118532807155428071187151720C0
:1000AC0087118316A3195D28831287135F28831287
:1000BC008717831623196528831207136728831261
:1000CC0007178316A3186D28831287126F288312C3
:1000DC008716831623187528831207127728831224
:1000EC00071661187B2807157C2807118715172020
:0E00FC008711611C832803208428102008002F
:10010A008312031361106F088316A3002E20611453
:02011A000800DB
:10011C0083120313EF0103306F0203189E286F083C
:10012C00831621078400203080008312EF0A912867
:10013C006F0883162107840080018312EF036F0878
:10014C0083162107A2000A30F4002008F0001D20BD
:10015C007808F0003030F00783162208840070080D
:10016C0080000A30F4002008F0001D20700883166F
:10017C00A0007008003A031DC428C7288312EF039F
:04018C00A52808009A
:0E019000831203135A088A00590882000800DF
:10019E00243083120313FD00FD0BD328000008004A
:1001AE0083120313EB01EC016708ED000030ED1B29
:1001BE00FF30EE0080306706F0008030003A7002AB
:1001CE000318F628EB0A0319EC0A6708003CED0049
:1001DE00EE01031CEE030130E71F0030EE076D0841
:1001EE008316A000831268088316A1008E200430A7
:1001FE0083120313E9000030EA006A08003C031D75
:10020E000A296908003C0318252969086807F200C5
:10021E0001306902F0000030031C013E6A02F10059
:10022E007008680784000008F000720884007008E7
:10023E0080000130E902031CEA03042968088400E7
:10024E00203080006B086C0403194329E901EA0190
:10025E006908680784000008203A031D3A29E90A54
:10026E000319EA0A2F290130E902031CEA0369087F
:0A027E00680784002D30800008009E
:100288005629803083120313E7006929C030E7003C
:1002980069299430E7006929D430E700692980305A
:1002A800E7006929831203136708013A03194529EE
:1002B8006708023A03194A296708033A03194D29BE
:1002C8006708043A0319502953296803F00067089E
:1002D800F0077008E70070088316A3002E2061104D
:1002E800EA016A08690784000008031983296A0873
:1002F800690784000008EF008520EA0A752961145F
:020308000800EB
:10030A0083120313E801E9016708F2006708F300A2
:10031A00720884000008203A031D982968086904B5
:10032A00031D9829A5290130E8000030E900720868
:10033A0084000008F0007308840070088000F30A43
:10034A007208F100F20A710884000008003A031DDD
:08035A008D296708F00008007E
:10036200831203139F01C0309F0483161F179F1728
:1003720083126708F000F00D7010F00D7010F00D90
:10038200701070089F041F14CF201F151F1DCB294A
:100392000000C7291F101E08F100F00183161E0875
:0803A200F0040030F104080032
:1003AA00831603178C1CDB290000D529831203133B
:1003BA00670803178D000313680803178C00831658
:1003CA008C130C150B08F0008B1355308D00AA30D6
:1003DA008D008C14F01BF3298B13F4298B170C1145
:0203EA00080009
:1003EC0083120313670803178D0083168C130C14E8
:0803FC0083120C08F000080058
:10040400803083120313F000803068067002031DED
:100414000D2A6708003C031C112A88015E2A8030DB
:10042400F000803068067002031D1A2A6708003C39
:1004340003182A2A80306806F00080307002031DF9
:10044400252A0330670203182A2A013088005E2A0D
:1004540080306806F00080307002031D332A0330B8
:100464006702031C432A80306806F0008030700263
:10047400031D3E2A053067020318432A073088000B
:100484005E2A80306806F00080307002031D4C2A1A
:1004940005306702031C5C2A80306806F000803057
:1004A4007002031D572A0A30670203185C2A3F3082
:0A04B40088005E2AFF30880008006F
:1004BE00C8208A110A128000840AD90A0319DA0A9E
:0804CE00F003031D5F2A080082
:1004D6008316031387110711071287120713871351
:1004E6008312871107118713071387120712032038
:1004F6000320032087160716871517208711032068
:1005060087151720871103208715172087110320C9
:1005160007128715172087110320871517208711C3
:100526008712871787151720871103208713071649
:1005360087151720871107128715172087110320A3
:10054600871517208711071687151720871103208F
:10055600071287151720871187170717871607169B
:0C0566008715172087110320611408007E
:1005720066248030831603139F00FF3085003F30CE
:100582008700803086008617880183128801023036
:10059200E7000530E800D5210330FB008A30FC007B
:1005A2005530FD00FD0BD32AFC0BD32AFB0BD32ABB
:1005B20000000000023083120313E700F6217008E6
:1005C2000313D7006B2201308316A3002E200C30B8
:1005D2008316A3002E201130E700F62170080313C2
:1005E200D8007008003C0318FC2A5808D7005808A5
:1005F200A000A101002BD7018801A001A101831253
:1006020003130130E700B12170088312E40071087E
:10061200E5000230E700B12170088312E2007108A0
:10062200E3006508013C031D182B6408903C031885
:100632005E2BD70A01308316A3002E200130E7007B
:100642000130E8004830E9004421203086000230C1
:10065200FB004530FC00A930FD00FD0B2E2BFC0BEE
:100662002E2BFB0B2E2B0000000040308600A00A30
:100672000319A10AE601043066020318532B1C3049
:100682008316A3002E200D30FB00AF30FC00B630E5
:10069200FD00FD0B4A2BFC0B4A2BFB0B4A2B0000E7
:1006A200E60A3C2B01308316A3002E208601200887
:1006B200E7002108E8000222C32B6308013C031D66
:1006C200642B6208903C0318C32B5708003C031CA0
:1006D2007F2BD7011530FB004B30FC00BE30FD00F4
:1006E200FD0B712BFC0B712BFB0B712B0000880196
:1006F200A001A101E701E8010222B92B2030860006
:100702000230FB004530FC00A930FD00FD0B872BB9
:10071200FC0B872BFB0B872B0000000010308600A0
:10072200D7030130A002031CA10301308316A300EA
:100732002E200130E7000130E8005130E900442169
:10074200E601043066020318B92B1C308316A3009D
:100752002E200D30FB00AF30FC00B630FD00FD0B4B
:10076200B02BFC0BB02BFB0BB02B0000E60AA22B2C
:1007720001308316A3002E2086012008E7002108FD
:10078200E80002222008E7002108E80002220130E6
:10079200E7000130E8003930E90044210230E70087
:1007A2000130E8002230E90044215708E7005B30BD
:1007B200E800D7205B30E70085217008E0000230B6
:1007C200E7000930E8007008E9004421861B152C77
:1007D2000330FB008A30FC005530FD00FD0BEF2B8F
:1007E200FC0BEF2BFB0BEF2B00000000861B152CE4
:1007F20001308316A3002E200330FB008A30FC0058
:100802005530FD00FD0B032CFC0B032CFB0B032CC2
:10081200000000000130E7000130E8002B30E90061
:100822004421D701A001A1010630FB001330FC00D6
:10083200AD30FD00FD0B1B2CFC0B1B2CFB0B1B2CF2
:10084200000000001130E7005708E800D521002B16
:02085200292C4F
:1008CC0020308400373083120313F0002F30D9000E
:0808DC000430DA005F2208007D
:04085E00003400342E
:1008620043346F3475346E347434653472343D34C9
:02087200003450
:1008740043346F3475346E347434653472342034D4
:0C0884005234653473346534743400342D
:1008900043346F3475346E347434653472342034B8
:0E08A000533479347334743465346D34003459
:1008AE0045346E34743465347234653464342034B3
:0208BE00003404
:0C08C0004C346534663474342034003449
:02400E004A273F
:00000001FF
